{
  "contractName": "BankContract",
  "abi": [
    {
      "inputs": [
        {
          "internalType": "contract Tol",
          "name": "_tol",
          "type": "address"
        }
      ],
      "payable": false,
      "stateMutability": "nonpayable",
      "type": "constructor"
    },
    {
      "anonymous": false,
      "inputs": [
        {
          "indexed": true,
          "internalType": "address",
          "name": "from",
          "type": "address"
        },
        {
          "indexed": false,
          "internalType": "uint256",
          "name": "amount",
          "type": "uint256"
        }
      ],
      "name": "Stake",
      "type": "event"
    },
    {
      "anonymous": false,
      "inputs": [
        {
          "indexed": true,
          "internalType": "address",
          "name": "from",
          "type": "address"
        },
        {
          "indexed": false,
          "internalType": "uint256",
          "name": "amount",
          "type": "uint256"
        }
      ],
      "name": "UnStake",
      "type": "event"
    },
    {
      "constant": true,
      "inputs": [
        {
          "internalType": "address",
          "name": "",
          "type": "address"
        }
      ],
      "name": "isStaking",
      "outputs": [
        {
          "internalType": "bool",
          "name": "",
          "type": "bool"
        }
      ],
      "payable": false,
      "stateMutability": "view",
      "type": "function"
    },
    {
      "constant": true,
      "inputs": [],
      "name": "name",
      "outputs": [
        {
          "internalType": "string",
          "name": "",
          "type": "string"
        }
      ],
      "payable": false,
      "stateMutability": "view",
      "type": "function"
    },
    {
      "constant": true,
      "inputs": [],
      "name": "owner",
      "outputs": [
        {
          "internalType": "address",
          "name": "",
          "type": "address"
        }
      ],
      "payable": false,
      "stateMutability": "view",
      "type": "function"
    },
    {
      "constant": true,
      "inputs": [
        {
          "internalType": "address",
          "name": "",
          "type": "address"
        }
      ],
      "name": "rewardBalance",
      "outputs": [
        {
          "internalType": "uint256",
          "name": "",
          "type": "uint256"
        }
      ],
      "payable": false,
      "stateMutability": "view",
      "type": "function"
    },
    {
      "constant": true,
      "inputs": [
        {
          "internalType": "uint256",
          "name": "",
          "type": "uint256"
        }
      ],
      "name": "stakers",
      "outputs": [
        {
          "internalType": "address",
          "name": "",
          "type": "address"
        }
      ],
      "payable": false,
      "stateMutability": "view",
      "type": "function"
    },
    {
      "constant": true,
      "inputs": [
        {
          "internalType": "address",
          "name": "",
          "type": "address"
        }
      ],
      "name": "stakingBalance",
      "outputs": [
        {
          "internalType": "uint256",
          "name": "",
          "type": "uint256"
        }
      ],
      "payable": false,
      "stateMutability": "view",
      "type": "function"
    },
    {
      "constant": true,
      "inputs": [
        {
          "internalType": "address",
          "name": "",
          "type": "address"
        }
      ],
      "name": "startTime",
      "outputs": [
        {
          "internalType": "uint256",
          "name": "",
          "type": "uint256"
        }
      ],
      "payable": false,
      "stateMutability": "view",
      "type": "function"
    },
    {
      "constant": true,
      "inputs": [],
      "name": "tol",
      "outputs": [
        {
          "internalType": "contract Tol",
          "name": "",
          "type": "address"
        }
      ],
      "payable": false,
      "stateMutability": "view",
      "type": "function"
    },
    {
      "constant": false,
      "inputs": [
        {
          "internalType": "uint256",
          "name": "_amount",
          "type": "uint256"
        }
      ],
      "name": "stakeTokens",
      "outputs": [],
      "payable": false,
      "stateMutability": "nonpayable",
      "type": "function"
    },
    {
      "constant": false,
      "inputs": [],
      "name": "unStakeTokens",
      "outputs": [],
      "payable": false,
      "stateMutability": "nonpayable",
      "type": "function"
    },
    {
      "constant": false,
      "inputs": [],
      "name": "withdrawReward",
      "outputs": [],
      "payable": false,
      "stateMutability": "nonpayable",
      "type": "function"
    },
    {
      "constant": false,
      "inputs": [
        {
          "internalType": "address",
          "name": "_user",
          "type": "address"
        }
      ],
      "name": "rewardPoolOne",
      "outputs": [
        {
          "internalType": "uint256",
          "name": "",
          "type": "uint256"
        }
      ],
      "payable": false,
      "stateMutability": "nonpayable",
      "type": "function"
    },
    {
      "constant": false,
      "inputs": [
        {
          "internalType": "address",
          "name": "_user",
          "type": "address"
        }
      ],
      "name": "rewardPoolTwo",
      "outputs": [
        {
          "internalType": "uint256",
          "name": "",
          "type": "uint256"
        }
      ],
      "payable": false,
      "stateMutability": "nonpayable",
      "type": "function"
    },
    {
      "constant": false,
      "inputs": [
        {
          "internalType": "address",
          "name": "_user",
          "type": "address"
        }
      ],
      "name": "rewardPoolThree",
      "outputs": [
        {
          "internalType": "uint256",
          "name": "",
          "type": "uint256"
        }
      ],
      "payable": false,
      "stateMutability": "nonpayable",
      "type": "function"
    }
  ],
  "bytecode": "0x60806040526040518060400160405280600e81526020017f546f6c20546f6b656e206661726d000000000000000000000000000000000000815250600090805190602001906200005192919062000147565b5069021e19e0c9bab2400000600155600a600b556028600c55603c600d553480156200007c57600080fd5b50604051620020e2380380620020e283398181016040526020811015620000a257600080fd5b810190808051906020019092919050505080600260006101000a81548173ffffffffffffffffffffffffffffffffffffffff021916908373ffffffffffffffffffffffffffffffffffffffff16021790555033600360006101000a81548173ffffffffffffffffffffffffffffffffffffffff021916908373ffffffffffffffffffffffffffffffffffffffff160217905550600b544201600e8190555050620001f6565b828054600181600116156101000203166002900490600052602060002090601f016020900481019282601f106200018a57805160ff1916838001178555620001bb565b82800160010185558215620001bb579182015b82811115620001ba5782518255916020019190600101906200019d565b5b509050620001ca9190620001ce565b5090565b620001f391905b80821115620001ef576000816000905550600101620001d5565b5090565b90565b611edc80620002066000396000f3fe608060405234801561001057600080fd5b50600436106100ea5760003560e01c80637547c7a31161008c5780638da5cb5b116100665780638da5cb5b14610408578063a11603c614610452578063c885bc58146104aa578063fd5e6dd1146104b4576100ea565b80637547c7a3146103865780637896bf1d146103b4578063803e0cd7146103be576100ea565b806345bc78ab116100c857806345bc78ab1461022257806367b40cf71461027a5780636e1dc66e146102d25780636f49712b1461032a576100ea565b806306fdde03146100ef578063100c3a071461017257806341e18462146101ca575b600080fd5b6100f7610522565b6040518080602001828103825283818151815260200191508051906020019080838360005b8381101561013757808201518184015260208101905061011c565b50505050905090810190601f1680156101645780820380516001836020036101000a031916815260200191505b509250505060405180910390f35b6101b46004803603602081101561018857600080fd5b81019080803573ffffffffffffffffffffffffffffffffffffffff1690602001909291905050506105c0565b6040518082815260200191505060405180910390f35b61020c600480360360208110156101e057600080fd5b81019080803573ffffffffffffffffffffffffffffffffffffffff1690602001909291905050506106be565b6040518082815260200191505060405180910390f35b6102646004803603602081101561023857600080fd5b81019080803573ffffffffffffffffffffffffffffffffffffffff1690602001909291905050506107bc565b6040518082815260200191505060405180910390f35b6102bc6004803603602081101561029057600080fd5b81019080803573ffffffffffffffffffffffffffffffffffffffff1690602001909291905050506107d4565b6040518082815260200191505060405180910390f35b610314600480360360208110156102e857600080fd5b81019080803573ffffffffffffffffffffffffffffffffffffffff1690602001909291905050506107ec565b6040518082815260200191505060405180910390f35b61036c6004803603602081101561034057600080fd5b81019080803573ffffffffffffffffffffffffffffffffffffffff169060200190929190505050610804565b604051808215151515815260200191505060405180910390f35b6103b26004803603602081101561039c57600080fd5b8101908080359060200190929190505050610824565b005b6103bc610e41565b005b6103c661190e565b604051808273ffffffffffffffffffffffffffffffffffffffff1673ffffffffffffffffffffffffffffffffffffffff16815260200191505060405180910390f35b610410611934565b604051808273ffffffffffffffffffffffffffffffffffffffff1673ffffffffffffffffffffffffffffffffffffffff16815260200191505060405180910390f35b6104946004803603602081101561046857600080fd5b81019080803573ffffffffffffffffffffffffffffffffffffffff16906020019092919050505061195a565b6040518082815260200191505060405180910390f35b6104b2611a32565b005b6104e0600480360360208110156104ca57600080fd5b8101908080359060200190929190505050611da9565b604051808273ffffffffffffffffffffffffffffffffffffffff1673ffffffffffffffffffffffffffffffffffffffff16815260200191505060405180910390f35b60008054600181600116156101000203166002900480601f0160208091040260200160405190810160405280929190818152602001828054600181600116156101000203166002900480156105b85780601f1061058d576101008083540402835291602001916105b8565b820191906000526020600020905b81548152906001019060200180831161059b57829003601f168201915b505050505081565b6000806105cc8361195a565b90506000606490506000601e90506000610603836105f584600154611de590919063ffffffff16565b611e1f90919063ffffffff16565b9050600061066d600f5461065f86600660008c73ffffffffffffffffffffffffffffffffffffffff1673ffffffffffffffffffffffffffffffffffffffff16815260200190815260200160002054611de590919063ffffffff16565b611e1f90919063ffffffff16565b90506000610696856106888486611de590919063ffffffff16565b611e1f90919063ffffffff16565b905060006106ad8783611e4590919063ffffffff16565b905080975050505050505050919050565b6000806106ca836105c0565b90506000606490506000603290506000610701836106f384600154611de590919063ffffffff16565b611e1f90919063ffffffff16565b9050600061076b600f5461075d86600660008c73ffffffffffffffffffffffffffffffffffffffff1673ffffffffffffffffffffffffffffffffffffffff16815260200190815260200160002054611de590919063ffffffff16565b611e1f90919063ffffffff16565b90506000610794856107868486611de590919063ffffffff16565b611e1f90919063ffffffff16565b905060006107ab8783611e4590919063ffffffff16565b905080975050505050505050919050565b60066020528060005260406000206000915090505481565b60076020528060005260406000206000915090505481565b60086020528060005260406000206000915090505481565b600a6020528060005260406000206000915054906101000a900460ff1681565b60008111801561090d575080600260009054906101000a900473ffffffffffffffffffffffffffffffffffffffff1673ffffffffffffffffffffffffffffffffffffffff166370a08231336040518263ffffffff1660e01b8152600401808273ffffffffffffffffffffffffffffffffffffffff1673ffffffffffffffffffffffffffffffffffffffff16815260200191505060206040518083038186803b1580156108cf57600080fd5b505afa1580156108e3573d6000803e3d6000fd5b505050506040513d60208110156108f957600080fd5b810190808051906020019092919050505010155b61097f576040517f08c379a00000000000000000000000000000000000000000000000000000000081526004018080602001828103825260138152602001807f416d6f756e742063616e206e6f7420626520300000000000000000000000000081525060200191505060405180910390fd5b600073ffffffffffffffffffffffffffffffffffffffff163373ffffffffffffffffffffffffffffffffffffffff161415610a05576040517f08c379a0000000000000000000000000000000000000000000000000000000008152600401808060200182810382526023815260200180611e856023913960400191505060405180910390fd5b42600e541015610a7d576040517f08c379a00000000000000000000000000000000000000000000000000000000081526004018080602001828103825260178152602001807f4e6f206d6f7265204465706f69737420616c6c6f77656400000000000000000081525060200191505060405180910390fd5b600260009054906101000a900473ffffffffffffffffffffffffffffffffffffffff1673ffffffffffffffffffffffffffffffffffffffff166323b872dd3330846040518463ffffffff1660e01b8152600401808473ffffffffffffffffffffffffffffffffffffffff1673ffffffffffffffffffffffffffffffffffffffff1681526020018373ffffffffffffffffffffffffffffffffffffffff1673ffffffffffffffffffffffffffffffffffffffff1681526020018281526020019350505050602060405180830381600087803b158015610b5a57600080fd5b505af1158015610b6e573d6000803e3d6000fd5b505050506040513d6020811015610b8457600080fd5b81019080805190602001909291905050505080600660003373ffffffffffffffffffffffffffffffffffffffff1673ffffffffffffffffffffffffffffffffffffffff1681526020019081526020016000206000828254019250508190555042600860003373ffffffffffffffffffffffffffffffffffffffff1673ffffffffffffffffffffffffffffffffffffffff16815260200190815260200160002081905550600960003373ffffffffffffffffffffffffffffffffffffffff1673ffffffffffffffffffffffffffffffffffffffff16815260200190815260200160002060009054906101000a900460ff16610cf15760043390806001815401808255809150509060018203906000526020600020016000909192909190916101000a81548173ffffffffffffffffffffffffffffffffffffffff021916908373ffffffffffffffffffffffffffffffffffffffff160217905550506005600081548092919060010191905055505b600660003373ffffffffffffffffffffffffffffffffffffffff1673ffffffffffffffffffffffffffffffffffffffff16815260200190815260200160002054600f600082825401925050819055506001600a60003373ffffffffffffffffffffffffffffffffffffffff1673ffffffffffffffffffffffffffffffffffffffff16815260200190815260200160002060006101000a81548160ff0219169083151502179055506001600960003373ffffffffffffffffffffffffffffffffffffffff1673ffffffffffffffffffffffffffffffffffffffff16815260200190815260200160002060006101000a81548160ff0219169083151502179055503373ffffffffffffffffffffffffffffffffffffffff167febedb8b3c678666e7f36970bc8f57abf6d8fa2e828c0da91ea5b75bf68ed101a826040518082815260200191505060405180910390a250565b600b54600e5401600e8190555060018015610e9b57506000600660003373ffffffffffffffffffffffffffffffffffffffff1673ffffffffffffffffffffffffffffffffffffffff16815260200190815260200160002054115b600a60003373ffffffffffffffffffffffffffffffffffffffff1673ffffffffffffffffffffffffffffffffffffffff16815260200190815260200160002060006101000a81548160ff0219169083151502179055610f62576040517f08c379a00000000000000000000000000000000000000000000000000000000081526004018080602001828103825260138152602001807f4e6f20746f6b656e20746f20756e7374616b650000000000000000000000000081525060200191505060405180910390fd5b600e54421015610fda576040517f08c379a00000000000000000000000000000000000000000000000000000000081526004018080602001828103825260098152602001807f546f6f206561726c79000000000000000000000000000000000000000000000081525060200191505060405180910390fd5b61102c600860003373ffffffffffffffffffffffffffffffffffffffff1673ffffffffffffffffffffffffffffffffffffffff1681526020019081526020016000205442611e6490919063ffffffff16565b601081905550600c5460105410156113215760006110493361195a565b9050600081600660003373ffffffffffffffffffffffffffffffffffffffff1673ffffffffffffffffffffffffffffffffffffffff16815260200190815260200160002054019050600260009054906101000a900473ffffffffffffffffffffffffffffffffffffffff1673ffffffffffffffffffffffffffffffffffffffff1663a9059cbb33836040518363ffffffff1660e01b8152600401808373ffffffffffffffffffffffffffffffffffffffff1673ffffffffffffffffffffffffffffffffffffffff16815260200182815260200192505050602060405180830381600087803b15801561113a57600080fd5b505af115801561114e573d6000803e3d6000fd5b505050506040513d602081101561116457600080fd5b81019080805190602001909291905050505081600160008282540392505081905550600660003373ffffffffffffffffffffffffffffffffffffffff1673ffffffffffffffffffffffffffffffffffffffff16815260200190815260200160002054600f60008282540392505081905550600660003373ffffffffffffffffffffffffffffffffffffffff1673ffffffffffffffffffffffffffffffffffffffff16815260200190815260200160002054600660003373ffffffffffffffffffffffffffffffffffffffff1673ffffffffffffffffffffffffffffffffffffffff168152602001908152602001600020600082825403925050819055506000600a60003373ffffffffffffffffffffffffffffffffffffffff1673ffffffffffffffffffffffffffffffffffffffff16815260200190815260200160002060006101000a81548160ff021916908315150217905550600560008154809291906001900391905055503373ffffffffffffffffffffffffffffffffffffffff167fb24546d975e2628748efc9aced80665e0fad66272033e5c0ea25fd3afac99795826040518082815260200191505060405180910390a2505061190c565b600c546010541180156113375750600d54601054105b1561161f576000611347336105c0565b9050600081600660003373ffffffffffffffffffffffffffffffffffffffff1673ffffffffffffffffffffffffffffffffffffffff16815260200190815260200160002054019050600660003373ffffffffffffffffffffffffffffffffffffffff1673ffffffffffffffffffffffffffffffffffffffff16815260200190815260200160002054600f60008282540392505081905550600260009054906101000a900473ffffffffffffffffffffffffffffffffffffffff1673ffffffffffffffffffffffffffffffffffffffff1663a9059cbb33836040518363ffffffff1660e01b8152600401808373ffffffffffffffffffffffffffffffffffffffff1673ffffffffffffffffffffffffffffffffffffffff16815260200182815260200192505050602060405180830381600087803b15801561148757600080fd5b505af115801561149b573d6000803e3d6000fd5b505050506040513d60208110156114b157600080fd5b81019080805190602001909291905050505081600160008282540392505081905550600660003373ffffffffffffffffffffffffffffffffffffffff1673ffffffffffffffffffffffffffffffffffffffff16815260200190815260200160002054600660003373ffffffffffffffffffffffffffffffffffffffff1673ffffffffffffffffffffffffffffffffffffffff168152602001908152602001600020600082825403925050819055506000600a60003373ffffffffffffffffffffffffffffffffffffffff1673ffffffffffffffffffffffffffffffffffffffff16815260200190815260200160002060006101000a81548160ff021916908315150217905550600560008154809291906001900391905055503373ffffffffffffffffffffffffffffffffffffffff167fb24546d975e2628748efc9aced80665e0fad66272033e5c0ea25fd3afac99795826040518082815260200191505060405180910390a2505061190b565b600d54601054111561190a576000611636336106be565b9050600081600660003373ffffffffffffffffffffffffffffffffffffffff1673ffffffffffffffffffffffffffffffffffffffff16815260200190815260200160002054019050600660003373ffffffffffffffffffffffffffffffffffffffff1673ffffffffffffffffffffffffffffffffffffffff16815260200190815260200160002054600f60008282540392505081905550600260009054906101000a900473ffffffffffffffffffffffffffffffffffffffff1673ffffffffffffffffffffffffffffffffffffffff1663a9059cbb33836040518363ffffffff1660e01b8152600401808373ffffffffffffffffffffffffffffffffffffffff1673ffffffffffffffffffffffffffffffffffffffff16815260200182815260200192505050602060405180830381600087803b15801561177657600080fd5b505af115801561178a573d6000803e3d6000fd5b505050506040513d60208110156117a057600080fd5b81019080805190602001909291905050505081600160008282540392505081905550600660003373ffffffffffffffffffffffffffffffffffffffff1673ffffffffffffffffffffffffffffffffffffffff16815260200190815260200160002054600660003373ffffffffffffffffffffffffffffffffffffffff1673ffffffffffffffffffffffffffffffffffffffff168152602001908152602001600020600082825403925050819055506000600a60003373ffffffffffffffffffffffffffffffffffffffff1673ffffffffffffffffffffffffffffffffffffffff16815260200190815260200160002060006101000a81548160ff021916908315150217905550600560008154809291906001900391905055503373ffffffffffffffffffffffffffffffffffffffff167fb24546d975e2628748efc9aced80665e0fad66272033e5c0ea25fd3afac99795826040518082815260200191505060405180910390a250505b5b5b565b600260009054906101000a900473ffffffffffffffffffffffffffffffffffffffff1681565b600360009054906101000a900473ffffffffffffffffffffffffffffffffffffffff1681565b6000806064905060006014905060006119908361198284600154611de590919063ffffffff16565b611e1f90919063ffffffff16565b905060006119fa600f546119ec86600660008b73ffffffffffffffffffffffffffffffffffffffff1673ffffffffffffffffffffffffffffffffffffffff16815260200190815260200160002054611de590919063ffffffff16565b611e1f90919063ffffffff16565b90506000611a2385611a158486611de590919063ffffffff16565b611e1f90919063ffffffff16565b90508095505050505050919050565b6000600554148015611a915750600360009054906101000a900473ffffffffffffffffffffffffffffffffffffffff1673ffffffffffffffffffffffffffffffffffffffff163373ffffffffffffffffffffffffffffffffffffffff16145b611a9a57600080fd5b6000600260009054906101000a900473ffffffffffffffffffffffffffffffffffffffff1673ffffffffffffffffffffffffffffffffffffffff166370a08231306040518263ffffffff1660e01b8152600401808273ffffffffffffffffffffffffffffffffffffffff1673ffffffffffffffffffffffffffffffffffffffff16815260200191505060206040518083038186803b158015611b3b57600080fd5b505afa158015611b4f573d6000803e3d6000fd5b505050506040513d6020811015611b6557600080fd5b810190808051906020019092919050505011611be9576040517f08c379a000000000000000000000000000000000000000000000000000000000815260040180806020018281038252601a8152602001807f4e6f20746f6b656e206c65667420696e2074686520706f6f6c2e00000000000081525060200191505060405180910390fd5b600260009054906101000a900473ffffffffffffffffffffffffffffffffffffffff1673ffffffffffffffffffffffffffffffffffffffff1663a9059cbb33600260009054906101000a900473ffffffffffffffffffffffffffffffffffffffff1673ffffffffffffffffffffffffffffffffffffffff166370a08231306040518263ffffffff1660e01b8152600401808273ffffffffffffffffffffffffffffffffffffffff1673ffffffffffffffffffffffffffffffffffffffff16815260200191505060206040518083038186803b158015611cc757600080fd5b505afa158015611cdb573d6000803e3d6000fd5b505050506040513d6020811015611cf157600080fd5b81019080805190602001909291905050506040518363ffffffff1660e01b8152600401808373ffffffffffffffffffffffffffffffffffffffff1673ffffffffffffffffffffffffffffffffffffffff16815260200182815260200192505050602060405180830381600087803b158015611d6b57600080fd5b505af1158015611d7f573d6000803e3d6000fd5b505050506040513d6020811015611d9557600080fd5b810190808051906020019092919050505050565b60048181548110611db657fe5b906000526020600020016000915054906101000a900473ffffffffffffffffffffffffffffffffffffffff1681565b600080831415611df85760009050611e19565b6000828402905082848281611e0957fe5b0414611e1457600080fd5b809150505b92915050565b6000808211611e2d57600080fd5b6000828481611e3857fe5b0490508091505092915050565b600080828401905083811015611e5a57600080fd5b8091505092915050565b600082821115611e7357600080fd5b60008284039050809150509291505056fe62616e6b2063616e206e6f7420646573706f697420696e2072657761726420706f6f6ca265627a7a723158201a2e969ac93b3ed6eaa2213350c81408f3bfc5bc12d9c9c4c07ab838f1404a9e64736f6c63430005100032",
  "source": "// SPDX-License-Identifier: MIT\r\npragma solidity >=0.4.22 <0.9.0;\r\n\r\nimport \"./Tol.sol\";\r\nimport \"openzeppelin-solidity/contracts/math/SafeMath.sol\";\r\n\r\n\r\ncontract BankContract {\r\n    using SafeMath for uint256;\r\n    string public name = \"Tol Token farm\";\r\n    \r\n    uint256 totalFarmSupply = 10000000000000000000000; //10,000 total supply for Pool\r\n    Tol public tol;\r\n    address public owner;\r\n    \r\n    address[] public stakers;\r\n    uint256 stakersCount;\r\n    mapping(address => uint256) public stakingBalance;\r\n    mapping(address => uint256) public rewardBalance;\r\n    mapping(address => uint256) public startTime;\r\n    mapping(address => bool) hasStaked;\r\n    mapping(address => bool) public  isStaking;\r\n    uint256 private duration = 10 seconds;\r\n    uint256 private subPoolOneTime = 40 seconds;\r\n    uint256 private subPoolTwoTime = 60 seconds;\r\n    uint256 private  end;\r\n    uint256 private totalStakedBalance;\r\n    uint256 private totalStakedTime;\r\n\r\n    event Stake(address indexed from, uint256 amount);\r\n    event UnStake(address indexed from, uint256 amount);\r\n    \r\n    constructor(Tol _tol) public {\r\n        tol =_tol;\r\n        owner = msg.sender;\r\n        end = block.timestamp + duration;\r\n    }    \r\n        \r\n    //staking Token - owner is able to stake coins\r\n    function stakeTokens(uint256 _amount) public{\r\n        require(_amount > 0 && tol.balanceOf(msg.sender)>=_amount, \"Amount can not be 0\");\r\n        require(msg.sender != address(0), 'bank can not despoit in reward pool');\r\n        require(end>=block.timestamp, \"No more Depoist allowed\"); \r\n        //transfering token for staking\r\n        tol.transferFrom(msg.sender, address(this), _amount);\r\n        //update staking balance\r\n        stakingBalance[msg.sender] += _amount;\r\n        startTime[msg.sender] = block.timestamp;        \r\n        //adding user to stake array if they haven't before\r\n        if(!hasStaked[msg.sender]){\r\n            stakers.push(msg.sender);\r\n            stakersCount++;\r\n        }\r\n        totalStakedBalance += stakingBalance[msg.sender];\r\n        //update the status\r\n        isStaking[msg.sender] = true;\r\n        hasStaked[msg.sender] = true;\r\n        \r\n        emit Stake(msg.sender, _amount);\r\n    }\r\n    \r\n    //unstake tokens \r\n    function unStakeTokens() public{\r\n        //this adds 10secs extra. This way user not able to withdaraw for 10 secs after the deposit finished\r\n        end = end+duration;\r\n        require(isStaking[msg.sender]=true && stakingBalance[msg.sender]>0, 'No token to unstake');\r\n        require(block.timestamp >=end, 'Too early');\r\n        \r\n        totalStakedTime = block.timestamp.sub(startTime[msg.sender]);\r\n        if(totalStakedTime<subPoolOneTime){\r\n            uint reward =  rewardPoolOne(msg.sender);\r\n            uint256 value = stakingBalance[msg.sender] + reward;\r\n            tol.transfer(msg.sender, value);\r\n            totalFarmSupply -= reward;\r\n            totalStakedBalance -= stakingBalance[msg.sender];\r\n            stakingBalance[msg.sender] -= stakingBalance[msg.sender];\r\n            isStaking[msg.sender] = false;\r\n            stakersCount --;\r\n            emit UnStake(msg.sender, value);\r\n        } else if( totalStakedTime>subPoolOneTime&&totalStakedTime<subPoolTwoTime){\r\n            uint reward =  rewardPoolTwo(msg.sender);\r\n            uint256 value = stakingBalance[msg.sender] + reward;\r\n            totalStakedBalance -= stakingBalance[msg.sender];\r\n            tol.transfer(msg.sender, value);\r\n            totalFarmSupply -= reward;\r\n            stakingBalance[msg.sender] -= stakingBalance[msg.sender];\r\n            isStaking[msg.sender] = false;\r\n            stakersCount --;\r\n            emit UnStake(msg.sender, value);\r\n        } else if(totalStakedTime>subPoolTwoTime){\r\n            uint reward =  rewardPoolThree(msg.sender);\r\n            uint256 value = stakingBalance[msg.sender] + reward;\r\n            totalStakedBalance -= stakingBalance[msg.sender];\r\n            tol.transfer(msg.sender, value);\r\n            totalFarmSupply -= reward;\r\n            stakingBalance[msg.sender] -= stakingBalance[msg.sender];\r\n            isStaking[msg.sender] = false;\r\n            stakersCount --;\r\n            emit UnStake(msg.sender, value);\r\n        }\r\n    }\r\n    \r\n   //bank able to remove the remaning reward after all stakers left the pool\r\n    function withdrawReward() public  {\r\n        require(stakersCount == 0 && msg.sender==owner);\r\n        require(tol.balanceOf(address(this)) > 0, 'No token left in the pool.');\r\n        tol.transfer(msg.sender, tol.balanceOf(address(this)));\r\n    }\r\n    /*R1 pool starts once the peroid where user is unable to depsoit finishes.\r\n    deposit > unDeposit period > R1 > R2 > R3\r\n       |__10sec__|____40sec______|\r\n       R1 & R2 has 60 secs reward period between them. Meaning R1 pool duration: 40 secs, R2: 60secs & R3 once R2 finishes \r\n     */\r\n    function rewardPoolOne( address _user) public  returns(uint256){\r\n            uint256 pool = 100;\r\n            uint256 poolAllocation = 20;\r\n            uint256 PoolOneSupply  = (totalFarmSupply.mul(poolAllocation)).div(pool);\r\n            uint256 userAllocation = (stakingBalance[_user].mul(pool)).div(totalStakedBalance);\r\n            uint256 poolOneReward  = (PoolOneSupply.mul(userAllocation)).div(pool);\r\n            return poolOneReward;\r\n    }\r\n\r\n    function rewardPoolTwo( address _user) public  returns(uint256){\r\n            uint256 previousPoolReward = rewardPoolOne(_user);\r\n            uint256 pool = 100;\r\n            uint256 poolAllocation = 30;\r\n            uint256 PoolOneSupply  = (totalFarmSupply.mul(poolAllocation)).div(pool);\r\n            uint256 userAllocation = (stakingBalance[_user].mul(pool)).div(totalStakedBalance);\r\n            uint256 poolTwoReward  = (PoolOneSupply.mul(userAllocation)).div(pool);\r\n            uint256 totalPoolReward = poolTwoReward.add(previousPoolReward);\r\n            return totalPoolReward;\r\n    }\r\n\r\n      function rewardPoolThree( address _user) public  returns(uint256){\r\n            uint256 previousPoolReward = rewardPoolTwo(_user);\r\n            uint256 pool = 100;\r\n            uint256 poolAllocation = 50;\r\n            uint256 PoolOneSupply  = (totalFarmSupply.mul(poolAllocation)).div(pool);\r\n            uint256 userAllocation = (stakingBalance[_user].mul(pool)).div(totalStakedBalance);\r\n            uint256 poolThreeReward  = (PoolOneSupply.mul(userAllocation)).div(pool);\r\n            uint256 totalPoolReward = poolThreeReward.add(previousPoolReward);\r\n            return totalPoolReward;\r\n    }    \r\n}",
  "sourcePath": "/mnt/c/pr0/bank-staking/src/contracts/BankContract.sol",
  "compiler": {
    "name": "solc",
    "version": "0.5.16+commit.9c3226ce.Emscripten.clang"
  },
  "schemaVersion": "3.4.3",
  "updatedAt": "2021-11-23T10:59:50.226Z",
  "networkType": "ethereum",
  "devdoc": {
    "methods": {}
  },
  "userdoc": {
    "methods": {}
  }
}